:020000040000FA
:0400000036EF00F0E7
:100018003F80D8CF33F0E8CF34F0E0CF35F0D9CFF8
:1000280036F0DACF37F09EAA1CEF00F01EEF00F092
:100038002AEF00F0ABA223EF00F025EF00F028EF45
:1000480000F0AB980000AB8859EC04F037C0DAFF39
:1000580036C0D9FF35C0E0FF34C0E8FF33C0D8FF51
:080068003F901000C6EF04F008
:100600000000D3EC04F0190E3A6EF7EC04F03B6EE8
:100610008EEC04F065EF03F0660EF8EC03F0000ECC
:10062000396E010E386E77EC04F08EEF03F0730E26
:10063000F8EC03F0000E396E000E386E77EC04F023
:100640008EEF03F0620EF8EC03F0000E396EFA0E36
:10065000386E77EC04F08EEF03F0720EF8EC03F0D6
:10066000000E396EFA0E386E77EC04F08EEF03F060
:100670006C0EF8EC03F0000E396EFA0E386E77EC63
:1006800004F08EEF03F0660EF8EC03F0000E396E06
:10069000320E386E77EC04F08EEF03F09C0E0326DA
:1006A000FF0E042204BE59EF03F057EF03F05DEF95
:1006B00003F0000E046E000E036E03C038F004C099
:1006C00039F077EC04F08EEF03F019503D6E3E6A7E
:1006D0003E50000AD8B46FEF03F08EEF03F03D50A8
:1006E000620AD8B422EF03F0060AD8B44EEF03F042
:1006F000020AD8B40CEF03F00A0AD8B438EF03F0BA
:100700001E0AD8B42DEF03F0010AD8B417EF03F096
:10071000060AD8B443EF03F08EEF03F03BEC04F08D
:10072000020E3E6E040E3D6EBA0EE82EFED73D2E32
:10073000FCD73E2EFAD700D003EF03F036EF00F0DF
:10074000000E326E2EBEA9EF03F0A7EF03F0AFEF5D
:1007500003F02D6C2E1ED8B02E2A010E326E30BE44
:10076000B6EF03F0B4EF03F0BAEF03F02F6C301ED6
:10077000D8B0302A2F503010D8B4C1EF03F0C3EFF7
:1007800003F0E7EF03F0010E316ECBEF03F0D890EA
:100790002F363036312A30AED0EF03F0D2EF03F0EF
:1007A000C7EF03F02F502D5C30502E58D8A0DBEF50
:1007B00003F0DDEF03F0E1EF03F02F502D5E30503A
:1007C0002E5AD89030322F32312ED2EF03F03250E1
:1007D000D8B4EDEF03F0EFEF03F0F3EF03F02D6C7F
:1007E0002E1ED8B02E2A2DC02DF02EC02EF01200B5
:1007F0003A6E19EF04F08C948C868B988B8A3AEFC2
:1008000004F08C948C968B988B9A3AEF04F08C843D
:100810008C968B888B9A3AEF04F08C848C968B980C
:100820008B8A3AEF04F08C948C868B888B9A3AEF03
:1008300004F03A50386E396A3950000AD8B423EFC0
:1008400004F03AEF04F03850620AD8B407EF04F02D
:10085000040AD8B4FBEF03F00A0AD8B413EF04F08B
:100860001E0AD8B40DEF04F0010AD8B401EF04F069
:100870003AEF04F01200000E396E000E386E385058
:10088000050FD96EDA6ADF6A384A392A39BE52EF63
:1008900004F0395009E10A0E385CD8A052EF04F098
:1008A00054EF04F03FEF04F0000E026E000E016EF4
:1008B00012000150050FD96EDA6AAECFDFFF01508A
:1008C000050FD96EDA6ADF50DEEC04F0014A022A25
:1008D00001C02DF002C02EF0000E306E0A0E2F6EF9
:1008E000A0EC03F02DC001F02EC002F0120038C0C1
:1008F0003AF039C03BF03B343B323A323B343B3286
:100900003A323A50BE6E38C03AF0030E3A163A3ACE
:10091000BD503A18CF0B3A18BD6E12003AC03CF0E9
:100920003B2A3B04D96EDA6A3C2A3C04E16EE26A57
:10093000DFCFE7FFE750D8A4A0EF04F0A2EF04F068
:1009400090EF04F012009494000E8B6ECA84CA508B
:10095000FC0B0109CA6EBD50F00B0C09BD6ECB68D3
:10096000000EBE6ECF0EBD161200948C948EAC9805
:10097000B896AC84330EAF6EAB8E9E889E9AAC8ACE
:10098000AB889D989F989D8A9F9A120000EE01F077
:100990002C0EEE6AE806FDE13F903F92000EF86EE5
:1009A000000101EF03F0F4EC04F0F0EC04F0B5EC1E
:1009B00004F0A3EC04F0E9EC04F012002D6EACA2FC
:1009C000E4EF04F0E6EF04F0DFEF04F02DC0ADFF3C
:1009D0001200959695949498949A000E8C6E12003D
:1009E000D08EF28EF28C1200700ED3121200050E11
:0209F0001200F3
:020000040020DA
:08000000FFFFFFFFFFFFFFFF00
:020000040030CA
:0E000000FF881F00FF8381FF0FC00FE00F403D
:00000001FF
